:020000040000FA
:10000000080AFF0FFF0FFF0FFF0FFF0FFF0FFF0F7C
:10001000A40BCE0BA305200AD40BDF0BF3060504BB
:10002000B80BE50B000C2A00000C2B00000C2C0078
:10003000580A530B0F0C250008022700050C250059
:100040000C0C250009022700070C250000080F0CE6
:10005000250008022700050C2500FF0C0700060CF0
:100060002500F90907022900050C2500000C0700EE
:100070000008E107390A3A0C21000008080C30009A
:100080000D05EF070D04D0096F03F002400AE309E4
:1000900000086E00080C300003046E03E3092D060F
:1000A0000E05F0024D0A0D054D060D04D00900089D
:1000B000F209C209F909A00C0A012F003E09F90949
:1000C0000B022F003E09F9090C022F003E09F90925
:1000D000C209F909A10C0A012F003E09F90993068A
:1000E000730A4D05490993041607000B6606BA0A00
:1000F0001306AD0A73078E0AFF0C340014028E013A
:100100004306A90AFE0C340014028E014306AB0A12
:10011000FD0C340014028E014306BA0A730453071F
:10012000B60A3307B20A750011063A0B3103B5025D
:100130001502080F4307940A12064B0B3203B5024F
:1001400015020E0F43079C0A3304530473059305ED
:10015000A90A39096F0A13056F0A3909EE02AD0AB7
:1001600013046F0A0E02310033056F0A0E023200CB
:1001700053056F0A4D044909F909CA0916061F0BF0
:100180001605190A2605F909F5090604F9092604D0
:10019000F2090008F50906042605F909F209000824
:1001A00026040D07DE0A2605D50AD60AD70AD80A7C
:1001B000D90ADA0A2604090C06000008080C060011
:1001C00006050604D30A2604090C06002D0526059B
:1001D000E90AEA0AEB0AEC0AED0AEE0A06072D0420
:1001E00026040008090C06000008080C0600060595
:1001F0000008FA0AFB0AFC0AFD0AFE0AFF0A0008C8
:100200000E0238004D0549090E0239004D05490915
:100210000E023A004D0549090E023B004D05490901
:100220000E023C004D0549090E023D004D054909ED
:100230000E023E004D0549090E023F00BA0A390977
:100240006606200B000C3400140297014306770B5E
:10025000010C3400140297014306850B020C340094
:10026000140297014306930B030C34001402970108
:100270004306A10B0E02290015022800070C880175
:100280004306460B1A094D054909960A0902800DD5
:10029000BF0E2900420B0E022900150228001A0980
:1002A0004D0549099E0A000C3400140297014306CB
:1002B0006C0B010C34001402970143067A0B020CFC
:1002C0003400140297014306880B030C3400140217
:1002D00097014306960B530B190218014306770B3F
:1002E000000C2A0018022B0019022C00580AB70231
:1002F0003909590B1B021A014306850B000C2A0011
:100300001A022B001B022C00580AB70239095F0B96
:100310001D021C014306930B000C2A001C022B003B
:100320001D022C00580AB7023909650B1F021E0175
:100330004306A10B000C2A001E022B001F022C00FA
:10034000580A770039096B0B080C0600000C0500F1
:10035000170C020075006606BE0B000C07000505B1
:10036000710072007300760077006600EB0B090ADB
:10037000FF0C27003909E702BA0B110AFF0C07002E
:100380000E0C05003909050539090504B502F50605
:100390000300C20B070205042600CC0B070C280043
:1003A000B80C29001A090A0A010C2800000C2900BF
:1003B0001A09000C2800E20C29001A090D0A080C81
:1003C00028000F0C29001A090E0A080C2800000C3E
:1003D00029001A09120A0F0C2500010C2700050C30
:1003E00025000C0C25008A0C2700F909050C2500B6
:1003F000010C280069002709E906F305B70BFF0F78
:100400000F0C250008022700050C25000C0C250008
:1004100009022700070C250000080F0C2500080220
:100420002700050C2500FF0C0700060C2500000026
:10043000000007022900050C2500000C0700000839
:100440000E0C28000D090902A4053000A4040F0CAD
:100450002800AA0CA4057007550CA4042900000963
:10046000A3040C0AFF0FFF0FFF0FFF0FFF0FFF0F7B
:10047000FF0FFF0FFF0FFF0FFF0FFF0FFF0FFF0F0C
:10048000FF0FFF0FFF0FFF0FFF0FFF0FFF0FFF0FFC
:10049000FF0FFF0FFF0FFF0FFF0FFF0FFF0FFF0FEC
:1004A000FF0FFF0FFF0FFF0FFF0FFF0FFF0FFF0FDC
:021FFE00F90FD9
:00000001FF
