:020000040000FA
:10000000080AFF0FFF0FFF0FFF0FFF0FFF0FFF0F7C
:10001000A30BCE0BA305220AD40BDF0B0505F306B9
:100020000504B80BE50B000C2A00000C2B00000C9B
:100030002C00590A520B0F0C250008022700050C52
:1000400025000D0C250009022700060C25000008DC
:100050000F0C250008022700050C2500FF0C0700E7
:10006000070C2500F80907022900040C2500000CE4
:1000700007000008E1073A0A3A0C21000008080CC2
:1000800030000D05EF070D04D1096F03F002410A9E
:10009000E30900086E00080C300003046E03E30956
:1000A0002D060E05F0024E0A0D054D060D04D10970
:1000B0000008F109C309F809A00C0A012F003F0943
:1000C000F8090B022F003F09F8090C022F003F0925
:1000D000F809C309F809A10C0A012F003F09F80922
:1000E0009306740A4D054A0993041607FF0A66062B
:1000F000BB0A1306AE0A73078F0AFF0C3400140202
:100100008E014306AA0AFE0C340014028E01430637
:10011000AC0AFD0C340014028E014306BB0A7304C2
:100120005307B70A3307B30A75001106390B3103B9
:10013000B5021502080F4307950A12064A0B32034F
:10014000B50215020E0F43079D0A330453047305CD
:100150009305AA0A3A09700A1305700A3A09EE02D1
:10016000AE0A1304700A0E0231003305700A0E0243
:1001700032005305700A4D044A09F809CB091606E6
:100180001E0B16051A0A2605F809F4090604F809D3
:100190002604F1090008F40906042605F809F10906
:1001A000000826040D07DE0A2605D60AD70AD80A53
:1001B000D90ADA0A2604090C06000008080C060011
:1001C00006050604D40A2604090C06002D0526059A
:1001D000E90AEA0AEB0AEC0AED0A06072D042604EE
:1001E0000008090C06000008080C060006050008B7
:1001F000F90AFA0AFB0AFC0AFD0AFE0A00080E02C6
:1002000038004D054A090E0239004D054A090E0213
:100210003A004D054A090E023B004D054A090E02FF
:100220003C004D054A090E023D004D054A090E02EB
:100230003E004D054A090E023F00BB0A3A09660618
:100240001F0B000C3400140297014306760B010CBF
:100250003400140297014306840B020C340014028C
:1002600097014306920B030C3400140297014306D6
:10027000A00B0E02290015022800070C8801430676
:10028000450B1B094D054A09970A0902800DBF0E4F
:100290002900410B0E022900150228001B094D05FB
:1002A0004A099F0A000C34001402970143066B0BA5
:1002B000010C3400140297014306790B020C340040
:1002C000140297014306870B030C340014029701B4
:1002D0004306950B520B190218014306760B000CCE
:1002E0002A0018022B0019022C00590AB7023A09F9
:1002F000580B1B021A014306840B000C2A001A0239
:100300002B001B022C00590AB7023A095E0B1D0292
:100310001C014306920B000C2A001C022B001D023C
:100320002C00590AB7023A09640B1F021E0143064A
:10033000A00B000C2A001E022B001F022C00590AE1
:1003400077003A096A0B080C06004604000C050009
:10035000170C0200750046056606BE0B000C070070
:10036000050571007200730076007700EB0B090A37
:100370003F0C28003A09E802BA0B120AFF0C0700EA
:100380000E0C05003A0905053A090504B502F50603
:100390000300C20B070205042600CC0B070C280043
:1003A000B80C29001B090A0A010C2800000C2900BE
:1003B0001B09000C2800E20C29001B090D0A080C7F
:1003C00028000F0C29001B090E0A080C2800000C3D
:1003D00029001B09130A0F0C2500010C2700050C2E
:1003E00025000C0C25008A0C2700F809050C2500B7
:1003F000010C280069002809E906F305B70BFF0F77
:100400000F0C250008022700050C25000C0C250008
:1004100009022700050C25000000000000080F0C51
:10042000250008022700050C2500FF0C0700060C1C
:1004300025000000000007022900050C2500000C23
:10044000070000080E0C28000F090902A40530005F
:10045000A4040F0C2800AA0CA4057007550CA404D2
:1004600029000009A3040C0AFF0FFF0FFF0FFF0F65
:10047000FF0FFF0FFF0FFF0FFF0FFF0FFF0FFF0F0C
:10048000FF0FFF0FFF0FFF0FFF0FFF0FFF0FFF0FFC
:10049000FF0FFF0FFF0FFF0FFF0FFF0FFF0FFF0FEC
:1004A000FF0FFF0FFF0FFF0FFF0FFF0FFF0FFF0FDC
:00000001FF
