:020000040000FA
:10000000080AFF0FFF0FFF0FFF0FFF0FFF0FFF0F7C
:10001000A50BCF0BA305200AD50BE00BF3060504B7
:10002000B90B120A000C2A00000C2B00000C2C004B
:10003000590A540B0F0C250008022700050C250057
:100040000C0C250009022700FA09050C2500000800
:100050000F0C250008022700050C2500FF0C0700E7
:10006000060C2500FA0907022900050C2500000CE2
:1000700007000008E1073A0A3A0C21000008080CC2
:1000800030000D05EF070D04D1096F03F002410A9E
:10009000E40900086E00080C300003046E03E40954
:1000A0002D060E05F0024E0A0D054D060D04D10970
:1000B0000008F309C309FA09A00C0A012F003F093F
:1000C000FA090B022F003F09FA090C022F003F0921
:1000D000FA09C309FA09A10C0A012F003F09FA091C
:1000E0009306740A4D054A0993041607010B660628
:1000F000BB0A1306AE0A73078F0AFF0C3400140202
:100100008E014306AA0AFE0C340014028E01430637
:10011000AC0AFD0C340014028E014306BB0A7304C2
:100120005307B70A3307B30A750011063B0B3103B7
:10013000B5021502080F4307950A12064C0B32034D
:10014000B50215020E0F43079D0A330453047305CD
:100150009305AA0A3A09700A1305700A3A09EE02D1
:10016000AE0A1304700A0E0231003305700A0E0243
:1001700032005305700A4D044A09FA09CB091606E4
:10018000200B1605190A2605FA09F6090604FA09CC
:100190002604F3090008F60906042605FA09F309FE
:1001A000000826040D07DF0A2605D60AD70AD80A52
:1001B000D90ADA0ADB0A2604090C06000008080C32
:1001C000060006050604D40A2604090C06002D05BF
:1001D0002605EA0AEB0AEC0AED0AEE0AEF0A060720
:1001E0002D0426040008090C06000008080C06006F
:1001F00006050008FB0AFC0AFD0AFE0AFF0A000BBE
:1002000000080E0238004D054A090E0239004D055E
:100210004A090E023A004D054A090E023B004D05FF
:100220004A090E023C004D054A090E023D004D05EB
:100230004A090E023E004D054A090E023F00BB0A64
:100240003A096606210B000C34001402970143069C
:10025000780B010C3400140297014306860B020C44
:100260003400140297014306940B030C340014026B
:1002700097014306A20B0E02290015022800070C65
:1002800088014306470B1A094D054A09970A0902D6
:10029000800DBF0E2900430B0E0229001502280015
:1002A0001A094D054A099F0A000C340014029701EF
:1002B00043066D0B010C34001402970143067B0BBF
:1002C000020C3400140297014306890B030C34001E
:1002D000140297014306970B540B190218014306A9
:1002E000780B000C2A0018022B0019022C00590A66
:1002F000B7023A095A0B1B021A014306860B000C7F
:100300002A001A022B001B022C00590AB7023A09D4
:10031000600B1D021C014306940B000C2A001C02FA
:100320002B001D022C00590AB7023A09660B1F0266
:100330001E014306A20B000C2A001E022B001F0206
:100340002C00590A77003A096C0B080C0600000CC7
:100350000500170C020075006606BF0B000C0700B5
:100360000505710072007300760077006600EC0BE3
:10037000090AFF0C28003A09E802BB0B110AFF0C1E
:1003800007000E0C05003A0905053A090504B502F7
:10039000F5060300C30B070205042600CD0B070C6E
:1003A0002800B80C29001A090A0A010C2800000CC0
:1003B00029001A09000C2800E20C29001A090D0A6C
:1003C000080C28000F0C29001A090E0A080C280036
:1003D000000C29001A09120A0F0C2500010C270035
:1003E000050C25000C0C25008A0C2700FA09050CC9
:1003F0002500010C280069002809E906F305B80B5F
:100400000F0C250008022700050C25000C0C250008
:1004100009022700070C250000080F0C2500080220
:100420002700050C2500FF0C0700060C2500000026
:10043000000007022900050C2500000C0700000839
:100440000E0C28000D090902A4053000A4040F0CAD
:100450002800AA0CA4057007550CA4042900000963
:10046000A3040C0AFF0FFF0FFF0FFF0FFF0FFF0F7B
:10047000FF0FFF0FFF0FFF0FFF0FFF0FFF0FFF0F0C
:10048000FF0FFF0FFF0FFF0FFF0FFF0FFF0FFF0FFC
:10049000FF0FFF0FFF0FFF0FFF0FFF0FFF0FFF0FEC
:1004A000FF0FFF0FFF0FFF0FFF0FFF0FFF0FFF0FDC
:021FFE00F90FD9
:00000001FF
